{
  "_format": "hh-sol-artifact-1",
  "contractName": "CasinoToken",
  "sourceName": "contracts/CasinoToken.sol",
  "abi": [
    {
      "inputs": [],
      "stateMutability": "nonpayable",
      "type": "constructor"
    },
    {
      "inputs": [
        {
          "internalType": "address",
          "name": "spender",
          "type": "address"
        },
        {
          "internalType": "uint256",
          "name": "allowance",
          "type": "uint256"
        },
        {
          "internalType": "uint256",
          "name": "needed",
          "type": "uint256"
        }
      ],
      "name": "ERC20InsufficientAllowance",
      "type": "error"
    },
    {
      "inputs": [
        {
          "internalType": "address",
          "name": "sender",
          "type": "address"
        },
        {
          "internalType": "uint256",
          "name": "balance",
          "type": "uint256"
        },
        {
          "internalType": "uint256",
          "name": "needed",
          "type": "uint256"
        }
      ],
      "name": "ERC20InsufficientBalance",
      "type": "error"
    },
    {
      "inputs": [
        {
          "internalType": "address",
          "name": "approver",
          "type": "address"
        }
      ],
      "name": "ERC20InvalidApprover",
      "type": "error"
    },
    {
      "inputs": [
        {
          "internalType": "address",
          "name": "receiver",
          "type": "address"
        }
      ],
      "name": "ERC20InvalidReceiver",
      "type": "error"
    },
    {
      "inputs": [
        {
          "internalType": "address",
          "name": "sender",
          "type": "address"
        }
      ],
      "name": "ERC20InvalidSender",
      "type": "error"
    },
    {
      "inputs": [
        {
          "internalType": "address",
          "name": "spender",
          "type": "address"
        }
      ],
      "name": "ERC20InvalidSpender",
      "type": "error"
    },
    {
      "anonymous": false,
      "inputs": [
        {
          "indexed": true,
          "internalType": "address",
          "name": "owner",
          "type": "address"
        },
        {
          "indexed": true,
          "internalType": "address",
          "name": "spender",
          "type": "address"
        },
        {
          "indexed": false,
          "internalType": "uint256",
          "name": "value",
          "type": "uint256"
        }
      ],
      "name": "Approval",
      "type": "event"
    },
    {
      "anonymous": false,
      "inputs": [
        {
          "indexed": true,
          "internalType": "address",
          "name": "from",
          "type": "address"
        },
        {
          "indexed": true,
          "internalType": "address",
          "name": "to",
          "type": "address"
        },
        {
          "indexed": false,
          "internalType": "uint256",
          "name": "value",
          "type": "uint256"
        }
      ],
      "name": "Transfer",
      "type": "event"
    },
    {
      "inputs": [
        {
          "internalType": "address",
          "name": "to",
          "type": "address"
        },
        {
          "internalType": "uint256",
          "name": "amount",
          "type": "uint256"
        }
      ],
      "name": "MintTo",
      "outputs": [],
      "stateMutability": "nonpayable",
      "type": "function"
    },
    {
      "inputs": [
        {
          "internalType": "address",
          "name": "owner",
          "type": "address"
        },
        {
          "internalType": "address",
          "name": "spender",
          "type": "address"
        }
      ],
      "name": "allowance",
      "outputs": [
        {
          "internalType": "uint256",
          "name": "",
          "type": "uint256"
        }
      ],
      "stateMutability": "view",
      "type": "function"
    },
    {
      "inputs": [
        {
          "internalType": "address",
          "name": "spender",
          "type": "address"
        },
        {
          "internalType": "uint256",
          "name": "value",
          "type": "uint256"
        }
      ],
      "name": "approve",
      "outputs": [
        {
          "internalType": "bool",
          "name": "",
          "type": "bool"
        }
      ],
      "stateMutability": "nonpayable",
      "type": "function"
    },
    {
      "inputs": [
        {
          "internalType": "address",
          "name": "account",
          "type": "address"
        }
      ],
      "name": "balanceOf",
      "outputs": [
        {
          "internalType": "uint256",
          "name": "",
          "type": "uint256"
        }
      ],
      "stateMutability": "view",
      "type": "function"
    },
    {
      "inputs": [],
      "name": "decimals",
      "outputs": [
        {
          "internalType": "uint8",
          "name": "",
          "type": "uint8"
        }
      ],
      "stateMutability": "view",
      "type": "function"
    },
    {
      "inputs": [],
      "name": "name",
      "outputs": [
        {
          "internalType": "string",
          "name": "",
          "type": "string"
        }
      ],
      "stateMutability": "view",
      "type": "function"
    },
    {
      "inputs": [],
      "name": "symbol",
      "outputs": [
        {
          "internalType": "string",
          "name": "",
          "type": "string"
        }
      ],
      "stateMutability": "view",
      "type": "function"
    },
    {
      "inputs": [],
      "name": "totalSupply",
      "outputs": [
        {
          "internalType": "uint256",
          "name": "",
          "type": "uint256"
        }
      ],
      "stateMutability": "view",
      "type": "function"
    },
    {
      "inputs": [
        {
          "internalType": "address",
          "name": "to",
          "type": "address"
        },
        {
          "internalType": "uint256",
          "name": "value",
          "type": "uint256"
        }
      ],
      "name": "transfer",
      "outputs": [
        {
          "internalType": "bool",
          "name": "",
          "type": "bool"
        }
      ],
      "stateMutability": "nonpayable",
      "type": "function"
    },
    {
      "inputs": [
        {
          "internalType": "address",
          "name": "from",
          "type": "address"
        },
        {
          "internalType": "address",
          "name": "to",
          "type": "address"
        },
        {
          "internalType": "uint256",
          "name": "value",
          "type": "uint256"
        }
      ],
      "name": "transferFrom",
      "outputs": [
        {
          "internalType": "bool",
          "name": "",
          "type": "bool"
        }
      ],
      "stateMutability": "nonpayable",
      "type": "function"
    }
  ],
  "bytecode": "0x60806040523480156200001157600080fd5b506040518060400160405280600b81526020017f436173696e6f546f6b656e0000000000000000000000000000000000000000008152506040518060400160405280600481526020017f43534e540000000000000000000000000000000000000000000000000000000081525081600390816200008f91906200063d565b508060049081620000a191906200063d565b505050620000b7336064620000bd60201b60201c565b62000a58565b620000f982620000d2620000fd60201b60201c565b600a620000e09190620008b4565b83620000ed919062000905565b6200010660201b60201c565b5050565b60006012905090565b600073ffffffffffffffffffffffffffffffffffffffff168273ffffffffffffffffffffffffffffffffffffffff16036200017b5760006040517fec442f0500000000000000000000000000000000000000000000000000000000815260040162000172919062000995565b60405180910390fd5b6200018f600083836200019360201b60201c565b5050565b600073ffffffffffffffffffffffffffffffffffffffff168373ffffffffffffffffffffffffffffffffffffffff1603620001e9578060026000828254620001dc9190620009b2565b92505081905550620002bf565b60008060008573ffffffffffffffffffffffffffffffffffffffff1673ffffffffffffffffffffffffffffffffffffffff1681526020019081526020016000205490508181101562000278578381836040517fe450d38c0000000000000000000000000000000000000000000000000000000081526004016200026f93929190620009fe565b60405180910390fd5b8181036000808673ffffffffffffffffffffffffffffffffffffffff1673ffffffffffffffffffffffffffffffffffffffff16815260200190815260200160002081905550505b600073ffffffffffffffffffffffffffffffffffffffff168273ffffffffffffffffffffffffffffffffffffffff16036200030a578060026000828254039250508190555062000357565b806000808473ffffffffffffffffffffffffffffffffffffffff1673ffffffffffffffffffffffffffffffffffffffff168152602001908152602001600020600082825401925050819055505b8173ffffffffffffffffffffffffffffffffffffffff168373ffffffffffffffffffffffffffffffffffffffff167fddf252ad1be2c89b69c2b068fc378daa952ba7f163c4a11628f55a4df523b3ef83604051620003b6919062000a3b565b60405180910390a3505050565b600081519050919050565b7f4e487b7100000000000000000000000000000000000000000000000000000000600052604160045260246000fd5b7f4e487b7100000000000000000000000000000000000000000000000000000000600052602260045260246000fd5b600060028204905060018216806200044557607f821691505b6020821081036200045b576200045a620003fd565b5b50919050565b60008190508160005260206000209050919050565b60006020601f8301049050919050565b600082821b905092915050565b600060088302620004c57fffffffffffffffffffffffffffffffffffffffffffffffffffffffffffffffff8262000486565b620004d1868362000486565b95508019841693508086168417925050509392505050565b6000819050919050565b6000819050919050565b60006200051e620005186200051284620004e9565b620004f3565b620004e9565b9050919050565b6000819050919050565b6200053a83620004fd565b62000552620005498262000525565b84845462000493565b825550505050565b600090565b620005696200055a565b620005768184846200052f565b505050565b5b818110156200059e57620005926000826200055f565b6001810190506200057c565b5050565b601f821115620005ed57620005b78162000461565b620005c28462000476565b81016020851015620005d2578190505b620005ea620005e18562000476565b8301826200057b565b50505b505050565b600082821c905092915050565b60006200061260001984600802620005f2565b1980831691505092915050565b60006200062d8383620005ff565b9150826002028217905092915050565b6200064882620003c3565b67ffffffffffffffff811115620006645762000663620003ce565b5b6200067082546200042c565b6200067d828285620005a2565b600060209050601f831160018114620006b55760008415620006a0578287015190505b620006ac85826200061f565b8655506200071c565b601f198416620006c58662000461565b60005b82811015620006ef57848901518255600182019150602085019450602081019050620006c8565b868310156200070f57848901516200070b601f891682620005ff565b8355505b6001600288020188555050505b505050505050565b7f4e487b7100000000000000000000000000000000000000000000000000000000600052601160045260246000fd5b60008160011c9050919050565b6000808291508390505b6001851115620007b2578086048111156200078a576200078962000724565b5b60018516156200079a5780820291505b8081029050620007aa8562000753565b94506200076a565b94509492505050565b600082620007cd5760019050620008a0565b81620007dd5760009050620008a0565b8160018114620007f65760028114620008015762000837565b6001915050620008a0565b60ff84111562000816576200081562000724565b5b8360020a91508482111562000830576200082f62000724565b5b50620008a0565b5060208310610133831016604e8410600b8410161715620008715782820a9050838111156200086b576200086a62000724565b5b620008a0565b62000880848484600162000760565b925090508184048111156200089a576200089962000724565b5b81810290505b9392505050565b600060ff82169050919050565b6000620008c182620004e9565b9150620008ce83620008a7565b9250620008fd7fffffffffffffffffffffffffffffffffffffffffffffffffffffffffffffffff8484620007bb565b905092915050565b60006200091282620004e9565b91506200091f83620004e9565b92508282026200092f81620004e9565b9150828204841483151762000949576200094862000724565b5b5092915050565b600073ffffffffffffffffffffffffffffffffffffffff82169050919050565b60006200097d8262000950565b9050919050565b6200098f8162000970565b82525050565b6000602082019050620009ac600083018462000984565b92915050565b6000620009bf82620004e9565b9150620009cc83620004e9565b9250828201905080821115620009e757620009e662000724565b5b92915050565b620009f881620004e9565b82525050565b600060608201905062000a15600083018662000984565b62000a246020830185620009ed565b62000a336040830184620009ed565b949350505050565b600060208201905062000a526000830184620009ed565b92915050565b6110f88062000a686000396000f3fe608060405234801561001057600080fd5b506004361061009e5760003560e01c8063313ce56711610066578063313ce5671461015b57806370a082311461017957806395d89b41146101a9578063a9059cbb146101c7578063dd62ed3e146101f75761009e565b806306fdde03146100a3578063095ea7b3146100c157806318160ddd146100f157806323b872dd1461010f5780632ccee9be1461013f575b600080fd5b6100ab610227565b6040516100b89190610b8c565b60405180910390f35b6100db60048036038101906100d69190610c47565b6102b9565b6040516100e89190610ca2565b60405180910390f35b6100f96102dc565b6040516101069190610ccc565b60405180910390f35b61012960048036038101906101249190610ce7565b6102e6565b6040516101369190610ca2565b60405180910390f35b61015960048036038101906101549190610c47565b610315565b005b610163610323565b6040516101709190610d56565b60405180910390f35b610193600480360381019061018e9190610d71565b61032c565b6040516101a09190610ccc565b60405180910390f35b6101b1610374565b6040516101be9190610b8c565b60405180910390f35b6101e160048036038101906101dc9190610c47565b610406565b6040516101ee9190610ca2565b60405180910390f35b610211600480360381019061020c9190610d9e565b610429565b60405161021e9190610ccc565b60405180910390f35b60606003805461023690610e0d565b80601f016020809104026020016040519081016040528092919081815260200182805461026290610e0d565b80156102af5780601f10610284576101008083540402835291602001916102af565b820191906000526020600020905b81548152906001019060200180831161029257829003601f168201915b5050505050905090565b6000806102c46104b0565b90506102d18185856104b8565b600191505092915050565b6000600254905090565b6000806102f16104b0565b90506102fe8582856104ca565b61030985858561055e565b60019150509392505050565b61031f8282610652565b5050565b60006012905090565b60008060008373ffffffffffffffffffffffffffffffffffffffff1673ffffffffffffffffffffffffffffffffffffffff168152602001908152602001600020549050919050565b60606004805461038390610e0d565b80601f01602080910402602001604051908101604052809291908181526020018280546103af90610e0d565b80156103fc5780601f106103d1576101008083540402835291602001916103fc565b820191906000526020600020905b8154815290600101906020018083116103df57829003601f168201915b5050505050905090565b6000806104116104b0565b905061041e81858561055e565b600191505092915050565b6000600160008473ffffffffffffffffffffffffffffffffffffffff1673ffffffffffffffffffffffffffffffffffffffff16815260200190815260200160002060008373ffffffffffffffffffffffffffffffffffffffff1673ffffffffffffffffffffffffffffffffffffffff16815260200190815260200160002054905092915050565b600033905090565b6104c5838383600161067e565b505050565b60006104d68484610429565b90507fffffffffffffffffffffffffffffffffffffffffffffffffffffffffffffffff81146105585781811015610548578281836040517ffb8f41b200000000000000000000000000000000000000000000000000000000815260040161053f93929190610e4d565b60405180910390fd5b6105578484848403600061067e565b5b50505050565b600073ffffffffffffffffffffffffffffffffffffffff168373ffffffffffffffffffffffffffffffffffffffff16036105d05760006040517f96c6fd1e0000000000000000000000000000000000000000000000000000000081526004016105c79190610e84565b60405180910390fd5b600073ffffffffffffffffffffffffffffffffffffffff168273ffffffffffffffffffffffffffffffffffffffff16036106425760006040517fec442f050000000000000000000000000000000000000000000000000000000081526004016106399190610e84565b60405180910390fd5b61064d838383610855565b505050565b61067a8261065e610323565b600a61066a9190611001565b83610675919061104c565b610a7a565b5050565b600073ffffffffffffffffffffffffffffffffffffffff168473ffffffffffffffffffffffffffffffffffffffff16036106f05760006040517fe602df050000000000000000000000000000000000000000000000000000000081526004016106e79190610e84565b60405180910390fd5b600073ffffffffffffffffffffffffffffffffffffffff168373ffffffffffffffffffffffffffffffffffffffff16036107625760006040517f94280d620000000000000000000000000000000000000000000000000000000081526004016107599190610e84565b60405180910390fd5b81600160008673ffffffffffffffffffffffffffffffffffffffff1673ffffffffffffffffffffffffffffffffffffffff16815260200190815260200160002060008573ffffffffffffffffffffffffffffffffffffffff1673ffffffffffffffffffffffffffffffffffffffff16815260200190815260200160002081905550801561084f578273ffffffffffffffffffffffffffffffffffffffff168473ffffffffffffffffffffffffffffffffffffffff167f8c5be1e5ebec7d5bd14f71427d1e84f3dd0314c0f7b2291e5b200ac8c7c3b925846040516108469190610ccc565b60405180910390a35b50505050565b600073ffffffffffffffffffffffffffffffffffffffff168373ffffffffffffffffffffffffffffffffffffffff16036108a757806002600082825461089b919061108e565b9250508190555061097a565b60008060008573ffffffffffffffffffffffffffffffffffffffff1673ffffffffffffffffffffffffffffffffffffffff16815260200190815260200160002054905081811015610933578381836040517fe450d38c00000000000000000000000000000000000000000000000000000000815260040161092a93929190610e4d565b60405180910390fd5b8181036000808673ffffffffffffffffffffffffffffffffffffffff1673ffffffffffffffffffffffffffffffffffffffff16815260200190815260200160002081905550505b600073ffffffffffffffffffffffffffffffffffffffff168273ffffffffffffffffffffffffffffffffffffffff16036109c35780600260008282540392505081905550610a10565b806000808473ffffffffffffffffffffffffffffffffffffffff1673ffffffffffffffffffffffffffffffffffffffff168152602001908152602001600020600082825401925050819055505b8173ffffffffffffffffffffffffffffffffffffffff168373ffffffffffffffffffffffffffffffffffffffff167fddf252ad1be2c89b69c2b068fc378daa952ba7f163c4a11628f55a4df523b3ef83604051610a6d9190610ccc565b60405180910390a3505050565b600073ffffffffffffffffffffffffffffffffffffffff168273ffffffffffffffffffffffffffffffffffffffff1603610aec5760006040517fec442f05000000000000000000000000000000000000000000000000000000008152600401610ae39190610e84565b60405180910390fd5b610af860008383610855565b5050565b600081519050919050565b600082825260208201905092915050565b60005b83811015610b36578082015181840152602081019050610b1b565b60008484015250505050565b6000601f19601f8301169050919050565b6000610b5e82610afc565b610b688185610b07565b9350610b78818560208601610b18565b610b8181610b42565b840191505092915050565b60006020820190508181036000830152610ba68184610b53565b905092915050565b600080fd5b600073ffffffffffffffffffffffffffffffffffffffff82169050919050565b6000610bde82610bb3565b9050919050565b610bee81610bd3565b8114610bf957600080fd5b50565b600081359050610c0b81610be5565b92915050565b6000819050919050565b610c2481610c11565b8114610c2f57600080fd5b50565b600081359050610c4181610c1b565b92915050565b60008060408385031215610c5e57610c5d610bae565b5b6000610c6c85828601610bfc565b9250506020610c7d85828601610c32565b9150509250929050565b60008115159050919050565b610c9c81610c87565b82525050565b6000602082019050610cb76000830184610c93565b92915050565b610cc681610c11565b82525050565b6000602082019050610ce16000830184610cbd565b92915050565b600080600060608486031215610d0057610cff610bae565b5b6000610d0e86828701610bfc565b9350506020610d1f86828701610bfc565b9250506040610d3086828701610c32565b9150509250925092565b600060ff82169050919050565b610d5081610d3a565b82525050565b6000602082019050610d6b6000830184610d47565b92915050565b600060208284031215610d8757610d86610bae565b5b6000610d9584828501610bfc565b91505092915050565b60008060408385031215610db557610db4610bae565b5b6000610dc385828601610bfc565b9250506020610dd485828601610bfc565b9150509250929050565b7f4e487b7100000000000000000000000000000000000000000000000000000000600052602260045260246000fd5b60006002820490506001821680610e2557607f821691505b602082108103610e3857610e37610dde565b5b50919050565b610e4781610bd3565b82525050565b6000606082019050610e626000830186610e3e565b610e6f6020830185610cbd565b610e7c6040830184610cbd565b949350505050565b6000602082019050610e996000830184610e3e565b92915050565b7f4e487b7100000000000000000000000000000000000000000000000000000000600052601160045260246000fd5b60008160011c9050919050565b6000808291508390505b6001851115610f2557808604811115610f0157610f00610e9f565b5b6001851615610f105780820291505b8081029050610f1e85610ece565b9450610ee5565b94509492505050565b600082610f3e5760019050610ffa565b81610f4c5760009050610ffa565b8160018114610f625760028114610f6c57610f9b565b6001915050610ffa565b60ff841115610f7e57610f7d610e9f565b5b8360020a915084821115610f9557610f94610e9f565b5b50610ffa565b5060208310610133831016604e8410600b8410161715610fd05782820a905083811115610fcb57610fca610e9f565b5b610ffa565b610fdd8484846001610edb565b92509050818404811115610ff457610ff3610e9f565b5b81810290505b9392505050565b600061100c82610c11565b915061101783610d3a565b92506110447fffffffffffffffffffffffffffffffffffffffffffffffffffffffffffffffff8484610f2e565b905092915050565b600061105782610c11565b915061106283610c11565b925082820261107081610c11565b9150828204841483151761108757611086610e9f565b5b5092915050565b600061109982610c11565b91506110a483610c11565b92508282019050808211156110bc576110bb610e9f565b5b9291505056fea2646970667358221220f5ef89476fd9401136d1c803fa23f073a6a994cd2e94384424f26c81166cac4d64736f6c63430008180033",
  "linkReferences": {},
  "deployedLinkReferences": {}
}